{
  "_format": "hh3-artifact-1",
  "contractName": "AIStrategyManager",
  "sourceName": "contracts/AIStrategyManager.sol",
  "abi": [
    {
      "inputs": [],
      "stateMutability": "nonpayable",
      "type": "constructor"
    },
    {
      "inputs": [
        {
          "internalType": "address",
          "name": "owner",
          "type": "address"
        }
      ],
      "name": "OwnableInvalidOwner",
      "type": "error"
    },
    {
      "inputs": [
        {
          "internalType": "address",
          "name": "account",
          "type": "address"
        }
      ],
      "name": "OwnableUnauthorizedAccount",
      "type": "error"
    },
    {
      "anonymous": false,
      "inputs": [
        {
          "indexed": true,
          "internalType": "address",
          "name": "user",
          "type": "address"
        },
        {
          "indexed": false,
          "internalType": "string",
          "name": "strategyType",
          "type": "string"
        },
        {
          "indexed": false,
          "internalType": "uint256",
          "name": "apy",
          "type": "uint256"
        }
      ],
      "name": "AIRecommendationGenerated",
      "type": "event"
    },
    {
      "anonymous": false,
      "inputs": [
        {
          "indexed": true,
          "internalType": "address",
          "name": "previousOwner",
          "type": "address"
        },
        {
          "indexed": true,
          "internalType": "address",
          "name": "newOwner",
          "type": "address"
        }
      ],
      "name": "OwnershipTransferred",
      "type": "event"
    },
    {
      "inputs": [
        {
          "internalType": "address",
          "name": "user",
          "type": "address"
        },
        {
          "internalType": "address",
          "name": "targetToken",
          "type": "address"
        },
        {
          "internalType": "uint256",
          "name": "apy",
          "type": "uint256"
        },
        {
          "internalType": "string",
          "name": "strategyType",
          "type": "string"
        },
        {
          "internalType": "bytes",
          "name": "strategyData",
          "type": "bytes"
        }
      ],
      "name": "addAIRecommendation",
      "outputs": [],
      "stateMutability": "nonpayable",
      "type": "function"
    },
    {
      "inputs": [
        {
          "internalType": "address",
          "name": "user",
          "type": "address"
        }
      ],
      "name": "getUserRecommendations",
      "outputs": [
        {
          "components": [
            {
              "internalType": "address",
              "name": "targetToken",
              "type": "address"
            },
            {
              "internalType": "uint256",
              "name": "recommendedAPY",
              "type": "uint256"
            },
            {
              "internalType": "string",
              "name": "strategyType",
              "type": "string"
            },
            {
              "internalType": "bytes",
              "name": "strategyData",
              "type": "bytes"
            },
            {
              "internalType": "uint256",
              "name": "timestamp",
              "type": "uint256"
            }
          ],
          "internalType": "struct AIStrategyManager.AIRecommendation[]",
          "name": "",
          "type": "tuple[]"
        }
      ],
      "stateMutability": "view",
      "type": "function"
    },
    {
      "inputs": [],
      "name": "owner",
      "outputs": [
        {
          "internalType": "address",
          "name": "",
          "type": "address"
        }
      ],
      "stateMutability": "view",
      "type": "function"
    },
    {
      "inputs": [],
      "name": "renounceOwnership",
      "outputs": [],
      "stateMutability": "nonpayable",
      "type": "function"
    },
    {
      "inputs": [
        {
          "internalType": "address",
          "name": "newOwner",
          "type": "address"
        }
      ],
      "name": "transferOwnership",
      "outputs": [],
      "stateMutability": "nonpayable",
      "type": "function"
    },
    {
      "inputs": [
        {
          "internalType": "address",
          "name": "",
          "type": "address"
        },
        {
          "internalType": "uint256",
          "name": "",
          "type": "uint256"
        }
      ],
      "name": "userRecommendations",
      "outputs": [
        {
          "internalType": "address",
          "name": "targetToken",
          "type": "address"
        },
        {
          "internalType": "uint256",
          "name": "recommendedAPY",
          "type": "uint256"
        },
        {
          "internalType": "string",
          "name": "strategyType",
          "type": "string"
        },
        {
          "internalType": "bytes",
          "name": "strategyData",
          "type": "bytes"
        },
        {
          "internalType": "uint256",
          "name": "timestamp",
          "type": "uint256"
        }
      ],
      "stateMutability": "view",
      "type": "function"
    }
  ],
  "bytecode": "0x6080604052348015600e575f5ffd5b503380603357604051631e4fbdf760e01b81525f600482015260240160405180910390fd5b603a81603f565b50608e565b5f80546001600160a01b038381166001600160a01b0319831681178455604051919092169283917f8be0079c531659141344cd1fd0a4f28419497f9722a3daafe3b4186f6b6457e09190a35050565b610a458061009b5f395ff3fe608060405234801561000f575f5ffd5b5060043610610060575f3560e01c80632d22a2f914610064578063715018a6146100915780638da5cb5b1461009b578063a63e3e92146100b5578063cf6cb924146100d5578063f2fde38b146100e8575b5f5ffd5b6100776100723660046105fe565b6100fb565b604051610088959493929190610654565b60405180910390f35b61009961025d565b005b5f546040516001600160a01b039091168152602001610088565b6100c86100c336600461069f565b610270565b60405161008891906106bf565b6100996100e33660046107fb565b61042d565b6100996100f636600461069f565b610526565b6001602052815f5260405f208181548110610114575f80fd5b5f9182526020909120600590910201805460018201546002830180546001600160a01b0390931695509093509061014a906108af565b80601f0160208091040260200160405190810160405280929190818152602001828054610176906108af565b80156101c15780601f10610198576101008083540402835291602001916101c1565b820191905f5260205f20905b8154815290600101906020018083116101a457829003601f168201915b5050505050908060030180546101d6906108af565b80601f0160208091040260200160405190810160405280929190818152602001828054610202906108af565b801561024d5780601f106102245761010080835404028352916020019161024d565b820191905f5260205f20905b81548152906001019060200180831161023057829003601f168201915b5050505050908060040154905085565b610265610568565b61026e5f610594565b565b6001600160a01b0381165f908152600160209081526040808320805482518185028101850190935280835260609492939192909184015b82821015610422575f8481526020908190206040805160a0810182526005860290920180546001600160a01b03168352600181015493830193909352600283018054929392918401916102f9906108af565b80601f0160208091040260200160405190810160405280929190818152602001828054610325906108af565b80156103705780601f1061034757610100808354040283529160200191610370565b820191905f5260205f20905b81548152906001019060200180831161035357829003601f168201915b50505050508152602001600382018054610389906108af565b80601f01602080910402602001604051908101604052809291908181526020018280546103b5906108af565b80156104005780601f106103d757610100808354040283529160200191610400565b820191905f5260205f20905b8154815290600101906020018083116103e357829003601f168201915b50505050508152602001600482015481525050815260200190600101906102a7565b505050509050919050565b610435610568565b6001600160a01b038581165f908152600160208181526040808420815160a0810183528a871681528084018a8152928101898152606082018990524260808301528254808701845592875293909520855160059092020180546001600160a01b0319169190961617855551918401919091555190919060028201906104ba9082610933565b50606082015160038201906104cf9082610933565b50608082015181600401555050846001600160a01b03167f575fd16868e4bc93d4fddd61e25fa4feefb6a4358a6794217b2e4272c18d2bee83856040516105179291906109ee565b60405180910390a25050505050565b61052e610568565b6001600160a01b03811661055c57604051631e4fbdf760e01b81525f60048201526024015b60405180910390fd5b61056581610594565b50565b5f546001600160a01b0316331461026e5760405163118cdaa760e01b8152336004820152602401610553565b5f80546001600160a01b038381166001600160a01b0319831681178455604051919092169283917f8be0079c531659141344cd1fd0a4f28419497f9722a3daafe3b4186f6b6457e09190a35050565b80356001600160a01b03811681146105f9575f5ffd5b919050565b5f5f6040838503121561060f575f5ffd5b610618836105e3565b946020939093013593505050565b5f81518084528060208401602086015e5f602082860101526020601f19601f83011685010191505092915050565b60018060a01b038616815284602082015260a060408201525f61067a60a0830186610626565b828103606084015261068c8186610626565b9150508260808301529695505050505050565b5f602082840312156106af575f5ffd5b6106b8826105e3565b9392505050565b5f602082016020835280845180835260408501915060408160051b8601019250602086015f5b8281101561076457603f19878603018452815160018060a01b03815116865260208101516020870152604081015160a0604088015261072760a0880182610626565b9050606082015187820360608901526107408282610626565b608093840151989093019790975250945060209384019391909101906001016106e5565b50929695505050505050565b634e487b7160e01b5f52604160045260245ffd5b5f5f67ffffffffffffffff84111561079e5761079e610770565b50604051601f19601f85018116603f0116810181811067ffffffffffffffff821117156107cd576107cd610770565b6040528381529050808284018510156107e4575f5ffd5b838360208301375f60208583010152509392505050565b5f5f5f5f5f60a0868803121561080f575f5ffd5b610818866105e3565b9450610826602087016105e3565b935060408601359250606086013567ffffffffffffffff811115610848575f5ffd5b8601601f81018813610858575f5ffd5b61086788823560208401610784565b925050608086013567ffffffffffffffff811115610883575f5ffd5b8601601f81018813610893575f5ffd5b6108a288823560208401610784565b9150509295509295909350565b600181811c908216806108c357607f821691505b6020821081036108e157634e487b7160e01b5f52602260045260245ffd5b50919050565b601f82111561092e57805f5260205f20601f840160051c8101602085101561090c5750805b601f840160051c820191505b8181101561092b575f8155600101610918565b50505b505050565b815167ffffffffffffffff81111561094d5761094d610770565b6109618161095b84546108af565b846108e7565b6020601f821160018114610993575f831561097c5750848201515b5f19600385901b1c1916600184901b17845561092b565b5f84815260208120601f198516915b828110156109c257878501518255602094850194600190920191016109a2565b50848210156109df57868401515f19600387901b60f8161c191681555b50505050600190811b01905550565b604081525f610a006040830185610626565b9050826020830152939250505056fea26469706673582212209ad1daf435700510c3b747dea288a091b903bdf801393bcc7b8b9a2d119197cb64736f6c634300081c0033",
  "linkReferences": {},
  "deployedLinkReferences": {},
  "immutableReferences": {},
  "inputSourceName": "project/contracts/AIStrategyManager.sol",
  "buildInfoId": "solc-0_8_28-b71835306f9f0e34c1a7793f0344e11d407abbfa"
}