{
  "_format": "hh3-artifact-1",
  "contractName": "YieldOptimizer",
  "sourceName": "contracts/YieldOptimizer.sol",
  "abi": [
    {
      "inputs": [],
      "stateMutability": "nonpayable",
      "type": "constructor"
    },
    {
      "inputs": [
        {
          "internalType": "address",
          "name": "owner",
          "type": "address"
        }
      ],
      "name": "OwnableInvalidOwner",
      "type": "error"
    },
    {
      "inputs": [
        {
          "internalType": "address",
          "name": "account",
          "type": "address"
        }
      ],
      "name": "OwnableUnauthorizedAccount",
      "type": "error"
    },
    {
      "inputs": [],
      "name": "ReentrancyGuardReentrantCall",
      "type": "error"
    },
    {
      "anonymous": false,
      "inputs": [
        {
          "indexed": true,
          "internalType": "address",
          "name": "previousOwner",
          "type": "address"
        },
        {
          "indexed": true,
          "internalType": "address",
          "name": "newOwner",
          "type": "address"
        }
      ],
      "name": "OwnershipTransferred",
      "type": "event"
    },
    {
      "anonymous": false,
      "inputs": [
        {
          "indexed": true,
          "internalType": "address",
          "name": "user",
          "type": "address"
        },
        {
          "indexed": true,
          "internalType": "uint256",
          "name": "strategyId",
          "type": "uint256"
        },
        {
          "indexed": false,
          "internalType": "uint256",
          "name": "amount",
          "type": "uint256"
        }
      ],
      "name": "PositionClosed",
      "type": "event"
    },
    {
      "anonymous": false,
      "inputs": [
        {
          "indexed": true,
          "internalType": "address",
          "name": "user",
          "type": "address"
        },
        {
          "indexed": true,
          "internalType": "uint256",
          "name": "strategyId",
          "type": "uint256"
        },
        {
          "indexed": false,
          "internalType": "uint256",
          "name": "amount",
          "type": "uint256"
        }
      ],
      "name": "PositionOpened",
      "type": "event"
    },
    {
      "anonymous": false,
      "inputs": [
        {
          "indexed": true,
          "internalType": "uint256",
          "name": "strategyId",
          "type": "uint256"
        },
        {
          "indexed": false,
          "internalType": "string",
          "name": "name",
          "type": "string"
        },
        {
          "indexed": false,
          "internalType": "uint256",
          "name": "expectedAPY",
          "type": "uint256"
        }
      ],
      "name": "StrategyCreated",
      "type": "event"
    },
    {
      "inputs": [],
      "name": "UNISWAP_V3_QUOTER",
      "outputs": [
        {
          "internalType": "address",
          "name": "",
          "type": "address"
        }
      ],
      "stateMutability": "view",
      "type": "function"
    },
    {
      "inputs": [],
      "name": "UNISWAP_V3_ROUTER",
      "outputs": [
        {
          "internalType": "address",
          "name": "",
          "type": "address"
        }
      ],
      "stateMutability": "view",
      "type": "function"
    },
    {
      "inputs": [
        {
          "internalType": "string",
          "name": "_name",
          "type": "string"
        },
        {
          "internalType": "address",
          "name": "_targetToken",
          "type": "address"
        },
        {
          "internalType": "uint256",
          "name": "_expectedAPY",
          "type": "uint256"
        }
      ],
      "name": "createAIStrategy",
      "outputs": [
        {
          "internalType": "uint256",
          "name": "",
          "type": "uint256"
        }
      ],
      "stateMutability": "nonpayable",
      "type": "function"
    },
    {
      "inputs": [
        {
          "internalType": "uint256",
          "name": "_strategyId",
          "type": "uint256"
        }
      ],
      "name": "depositToStrategy",
      "outputs": [],
      "stateMutability": "payable",
      "type": "function"
    },
    {
      "inputs": [],
      "name": "getActiveStrategies",
      "outputs": [
        {
          "components": [
            {
              "internalType": "uint256",
              "name": "id",
              "type": "uint256"
            },
            {
              "internalType": "string",
              "name": "name",
              "type": "string"
            },
            {
              "internalType": "address",
              "name": "targetToken",
              "type": "address"
            },
            {
              "internalType": "uint256",
              "name": "expectedAPY",
              "type": "uint256"
            },
            {
              "internalType": "uint256",
              "name": "totalDeposited",
              "type": "uint256"
            },
            {
              "internalType": "bool",
              "name": "isActive",
              "type": "bool"
            }
          ],
          "internalType": "struct YieldOptimizer.Strategy[]",
          "name": "",
          "type": "tuple[]"
        }
      ],
      "stateMutability": "view",
      "type": "function"
    },
    {
      "inputs": [
        {
          "internalType": "address",
          "name": "user",
          "type": "address"
        }
      ],
      "name": "getUserPositions",
      "outputs": [
        {
          "components": [
            {
              "internalType": "uint256",
              "name": "strategyId",
              "type": "uint256"
            },
            {
              "internalType": "uint256",
              "name": "amount",
              "type": "uint256"
            },
            {
              "internalType": "uint256",
              "name": "depositTime",
              "type": "uint256"
            },
            {
              "internalType": "uint256",
              "name": "lastClaimTime",
              "type": "uint256"
            }
          ],
          "internalType": "struct YieldOptimizer.UserPosition[]",
          "name": "",
          "type": "tuple[]"
        }
      ],
      "stateMutability": "view",
      "type": "function"
    },
    {
      "inputs": [],
      "name": "owner",
      "outputs": [
        {
          "internalType": "address",
          "name": "",
          "type": "address"
        }
      ],
      "stateMutability": "view",
      "type": "function"
    },
    {
      "inputs": [],
      "name": "renounceOwnership",
      "outputs": [],
      "stateMutability": "nonpayable",
      "type": "function"
    },
    {
      "inputs": [
        {
          "internalType": "uint256",
          "name": "",
          "type": "uint256"
        }
      ],
      "name": "strategies",
      "outputs": [
        {
          "internalType": "uint256",
          "name": "id",
          "type": "uint256"
        },
        {
          "internalType": "string",
          "name": "name",
          "type": "string"
        },
        {
          "internalType": "address",
          "name": "targetToken",
          "type": "address"
        },
        {
          "internalType": "uint256",
          "name": "expectedAPY",
          "type": "uint256"
        },
        {
          "internalType": "uint256",
          "name": "totalDeposited",
          "type": "uint256"
        },
        {
          "internalType": "bool",
          "name": "isActive",
          "type": "bool"
        }
      ],
      "stateMutability": "view",
      "type": "function"
    },
    {
      "inputs": [],
      "name": "strategyCounter",
      "outputs": [
        {
          "internalType": "uint256",
          "name": "",
          "type": "uint256"
        }
      ],
      "stateMutability": "view",
      "type": "function"
    },
    {
      "inputs": [
        {
          "internalType": "address",
          "name": "newOwner",
          "type": "address"
        }
      ],
      "name": "transferOwnership",
      "outputs": [],
      "stateMutability": "nonpayable",
      "type": "function"
    },
    {
      "inputs": [
        {
          "internalType": "address",
          "name": "",
          "type": "address"
        },
        {
          "internalType": "uint256",
          "name": "",
          "type": "uint256"
        }
      ],
      "name": "userPositions",
      "outputs": [
        {
          "internalType": "uint256",
          "name": "strategyId",
          "type": "uint256"
        },
        {
          "internalType": "uint256",
          "name": "amount",
          "type": "uint256"
        },
        {
          "internalType": "uint256",
          "name": "depositTime",
          "type": "uint256"
        },
        {
          "internalType": "uint256",
          "name": "lastClaimTime",
          "type": "uint256"
        }
      ],
      "stateMutability": "view",
      "type": "function"
    }
  ],
  "bytecode": "0x6080604052348015600e575f5ffd5b503380603357604051631e4fbdf760e01b81525f600482015260240160405180910390fd5b603a816043565b50600180556092565b5f80546001600160a01b038381166001600160a01b0319831681178455604051919092169283917f8be0079c531659141344cd1fd0a4f28419497f9722a3daafe3b4186f6b6457e09190a35050565b610eaa8061009f5f395ff3fe6080604052600436106100a5575f3560e01c8063923c07e611610062578063923c07e6146101af578063c5c8fb61146101dc578063d33b0aa714610203578063d574ea3d14610216578063f2fde38b14610247578063ffb9feb314610266575f5ffd5b80632a6bc2dd146100a957806341c64a2f146100de578063587436e41461011d5780635e1b4d991461013e578063715018a61461017d5780638da5cb5b14610193575b5f5ffd5b3480156100b4575f5ffd5b506100c86100c33660046109f0565b61027b565b6040516100d59190610a10565b60405180910390f35b3480156100e9575f5ffd5b50610105733bfa4769fb09eefc5a80d6e87c3b9c650f7ae48e81565b6040516001600160a01b0390911681526020016100d5565b348015610128575f5ffd5b50610131610314565b6040516100d59190610aa6565b348015610149575f5ffd5b5061015d610158366004610b53565b610545565b6040805194855260208501939093529183015260608201526080016100d5565b348015610188575f5ffd5b50610191610587565b005b34801561019e575f5ffd5b505f546001600160a01b0316610105565b3480156101ba575f5ffd5b506101ce6101c9366004610b8f565b61059a565b6040519081526020016100d5565b3480156101e7575f5ffd5b5061010573ed1f6473345f45b75f8179591dd5ba1888cf2fb381565b610191610211366004610c5c565b6106b8565b348015610221575f5ffd5b50610235610230366004610c5c565b61082e565b6040516100d596959493929190610c73565b348015610252575f5ffd5b506101916102613660046109f0565b6108f6565b348015610271575f5ffd5b506101ce60045481565b6001600160a01b0381165f908152600260209081526040808320805482518185028101850190935280835260609492939192909184015b82821015610309578382905f5260205f2090600402016040518060800160405290815f82015481526020016001820154815260200160028201548152602001600382015481525050815260200190600101906102b2565b505050509050919050565b60605f60015b600454811161035c575f8181526003602052604090206005015460ff161561034a578161034681610ccf565b9250505b8061035481610ccf565b91505061031a565b505f8167ffffffffffffffff81111561037757610377610b7b565b6040519080825280602002602001820160405280156103e757816020015b6103d46040518060c001604052805f8152602001606081526020015f6001600160a01b031681526020015f81526020015f81526020015f151581525090565b8152602001906001900390816103955790505b5090505f60015b600454811161053c575f8181526003602052604090206005015460ff161561052a5760035f8281526020019081526020015f206040518060c00160405290815f820154815260200160018201805461044590610ce7565b80601f016020809104026020016040519081016040528092919081815260200182805461047190610ce7565b80156104bc5780601f10610493576101008083540402835291602001916104bc565b820191905f5260205f20905b81548152906001019060200180831161049f57829003601f168201915b505050918352505060028201546001600160a01b03166020820152600382015460408201526004820154606082015260059091015460ff161515608090910152835184908490811061051057610510610d1f565b6020026020010181905250818061052690610ccf565b9250505b8061053481610ccf565b9150506103ee565b50909392505050565b6002602052815f5260405f20818154811061055e575f80fd5b5f9182526020909120600490910201805460018201546002830154600390930154919450925084565b61058f610930565b6105985f61095c565b565b5f6105a3610930565b60048054905f6105b283610ccf565b90915550506040805160c08101825260045480825260208083018881526001600160a01b03881684860152606084018790525f60808501819052600160a086018190529381526003909252939020825181559251919291908201906106179082610d7f565b506040828101516002830180546001600160a01b0319166001600160a01b0390921691909117905560608301516003830155608083015160048084019190915560a0909301516005909201805460ff191692151592909217909155905490517fc36c6585acff57ff1d4c48ce7ed833464e6b39cc3566a21b3c74f017be212259906106a59087908690610e3a565b60405180910390a2506004549392505050565b6106c06109ab565b5f8181526003602052604090206005015460ff1661071b5760405162461bcd60e51b81526020600482015260136024820152725374726174656779206e6f742061637469766560681b60448201526064015b60405180910390fd5b5f34116107635760405162461bcd60e51b81526020600482015260166024820152754d757374206465706f73697420736f6d657468696e6760501b6044820152606401610712565b335f9081526002602081815260408084208151608081018352868152348185018181524283860181815260608501918252855460018181018855968b52888b2095516004918202909601958655925195850195909555935196830196909655915160039182015586865290925283209091018054919290916107e6908490610e5b565b9091555050604051348152819033907fc491b8e6940cb48fcf9cf813c35e2d45fad221af7d5f4ce18d77dc576e5bf2209060200160405180910390a361082b60018055565b50565b60036020525f90815260409020805460018201805491929161084f90610ce7565b80601f016020809104026020016040519081016040528092919081815260200182805461087b90610ce7565b80156108c65780601f1061089d576101008083540402835291602001916108c6565b820191905f5260205f20905b8154815290600101906020018083116108a957829003601f168201915b5050505060028301546003840154600485015460059095015493946001600160a01b039092169390925060ff1686565b6108fe610930565b6001600160a01b03811661092757604051631e4fbdf760e01b81525f6004820152602401610712565b61082b8161095c565b5f546001600160a01b031633146105985760405163118cdaa760e01b8152336004820152602401610712565b5f80546001600160a01b038381166001600160a01b0319831681178455604051919092169283917f8be0079c531659141344cd1fd0a4f28419497f9722a3daafe3b4186f6b6457e09190a35050565b6002600154036109ce57604051633ee5aeb560e01b815260040160405180910390fd5b6002600155565b80356001600160a01b03811681146109eb575f5ffd5b919050565b5f60208284031215610a00575f5ffd5b610a09826109d5565b9392505050565b602080825282518282018190525f918401906040840190835b81811015610a6d5783518051845260208101516020850152604081015160408501526060810151606085015250608083019250602084019350600181019050610a29565b509095945050505050565b5f81518084528060208401602086015e5f602082860101526020601f19601f83011685010191505092915050565b5f602082016020835280845180835260408501915060408160051b8601019250602086015f5b82811015610b4757603f19878603018452815180518652602081015160c06020880152610afc60c0880182610a78565b6040838101516001600160a01b031690890152606080840151908901526080808401519089015260a09283015115159290970191909152506020938401939190910190600101610acc565b50929695505050505050565b5f5f60408385031215610b64575f5ffd5b610b6d836109d5565b946020939093013593505050565b634e487b7160e01b5f52604160045260245ffd5b5f5f5f60608486031215610ba1575f5ffd5b833567ffffffffffffffff811115610bb7575f5ffd5b8401601f81018613610bc7575f5ffd5b803567ffffffffffffffff811115610be157610be1610b7b565b604051601f8201601f19908116603f0116810167ffffffffffffffff81118282101715610c1057610c10610b7b565b604052818152828201602001881015610c27575f5ffd5b816020840160208301375f60208383010152809550505050610c4b602085016109d5565b929592945050506040919091013590565b5f60208284031215610c6c575f5ffd5b5035919050565b86815260c060208201525f610c8b60c0830188610a78565b6001600160a01b039690961660408301525060608101939093526080830191909152151560a09091015292915050565b634e487b7160e01b5f52601160045260245ffd5b5f60018201610ce057610ce0610cbb565b5060010190565b600181811c90821680610cfb57607f821691505b602082108103610d1957634e487b7160e01b5f52602260045260245ffd5b50919050565b634e487b7160e01b5f52603260045260245ffd5b601f821115610d7a57805f5260205f20601f840160051c81016020851015610d585750805b601f840160051c820191505b81811015610d77575f8155600101610d64565b50505b505050565b815167ffffffffffffffff811115610d9957610d99610b7b565b610dad81610da78454610ce7565b84610d33565b6020601f821160018114610ddf575f8315610dc85750848201515b5f19600385901b1c1916600184901b178455610d77565b5f84815260208120601f198516915b82811015610e0e5787850151825560209485019460019092019101610dee565b5084821015610e2b57868401515f19600387901b60f8161c191681555b50505050600190811b01905550565b604081525f610e4c6040830185610a78565b90508260208301529392505050565b80820180821115610e6e57610e6e610cbb565b9291505056fea26469706673582212205ba5d5da19aac27cafed558d17a14f6fbe2ede9998c9737c2251f2b8813f4e2c64736f6c634300081c0033",
  "linkReferences": {},
  "deployedLinkReferences": {},
  "immutableReferences": {},
  "inputSourceName": "project/contracts/YieldOptimizer.sol",
  "buildInfoId": "solc-0_8_28-dc5d16ad1f053e5f1f051ebf6e3e2434d17ca1ba"
}